{
  "contractName": "UserValidation",
  "abi": [
    {
      "inputs": [
        {
          "internalType": "uint256",
          "name": "userId",
          "type": "uint256"
        },
        {
          "internalType": "string",
          "name": "ethereumId",
          "type": "string"
        },
        {
          "internalType": "uint256",
          "name": "age",
          "type": "uint256"
        }
      ],
      "name": "setUser",
      "outputs": [],
      "stateMutability": "nonpayable",
      "type": "function"
    },
    {
      "inputs": [
        {
          "internalType": "uint256",
          "name": "userId",
          "type": "uint256"
        },
        {
          "internalType": "uint256",
          "name": "dob",
          "type": "uint256"
        }
      ],
      "name": "validateAge",
      "outputs": [
        {
          "internalType": "bool",
          "name": "",
          "type": "bool"
        }
      ],
      "stateMutability": "view",
      "type": "function",
      "constant": true
    },
    {
      "inputs": [
        {
          "internalType": "uint256",
          "name": "userId",
          "type": "uint256"
        },
        {
          "internalType": "uint256",
          "name": "dob",
          "type": "uint256"
        },
        {
          "internalType": "string",
          "name": "ethereumId",
          "type": "string"
        }
      ],
      "name": "validateLoginAgeGated",
      "outputs": [
        {
          "internalType": "bool",
          "name": "",
          "type": "bool"
        }
      ],
      "stateMutability": "view",
      "type": "function",
      "constant": true
    },
    {
      "inputs": [
        {
          "internalType": "uint256",
          "name": "userId",
          "type": "uint256"
        },
        {
          "internalType": "string",
          "name": "ethereumId",
          "type": "string"
        }
      ],
      "name": "validateLoginNonAgeGated",
      "outputs": [
        {
          "internalType": "bool",
          "name": "",
          "type": "bool"
        }
      ],
      "stateMutability": "view",
      "type": "function",
      "constant": true
    }
  ],
  "bytecode": "0x608060405234801561001057600080fd5b50610b46806100206000396000f3fe608060405234801561001057600080fd5b506004361061004c5760003560e01c8063074bbad914610051578063a8de2c431461006d578063bca2e3d71461009d578063e5c021ce146100cd575b600080fd5b61006b60048036038101906100669190610537565b6100fd565b005b610087600480360381019061008291906105a6565b61014c565b6040516100949190610601565b60405180910390f35b6100b760048036038101906100b2919061061c565b610168565b6040516100c49190610601565b60405180910390f35b6100e760048036038101906100e29190610678565b610263565b6040516100f49190610601565b60405180910390f35b604051806040016040528083815260200182815250600080858152602001908152602001600020600082015181600001908161013991906108fe565b5060208201518160010155905050505050565b60008061015883610378565b9050601581101591505092915050565b600080600080858152602001908152602001600020600001805461018b90610721565b80601f01602080910402602001604051908101604052809291908181526020018280546101b790610721565b80156102045780601f106101d957610100808354040283529160200191610204565b820191906000526020600020905b8154815290600101906020018083116101e757829003601f168201915b505050505090508260405160200161021c9190610a36565b60405160208183030381529060405280519060200120816040516020016102439190610a36565b604051602081830303815290604052805190602001201491505092915050565b600080600080868152602001908152602001600020600001805461028690610721565b80601f01602080910402602001604051908101604052809291908181526020018280546102b290610721565b80156102ff5780601f106102d4576101008083540402835291602001916102ff565b820191906000526020600020905b8154815290600101906020018083116102e257829003601f168201915b50505050509050826040516020016103179190610a36565b604051602081830303815290604052805190602001208160405160200161033e9190610a36565b604051602081830303815290604052805190602001200361036b57610363858561014c565b915050610371565b60009150505b9392505050565b60008042905060006301e1338084836103919190610a7c565b61039b9190610adf565b90508092505050919050565b6000604051905090565b600080fd5b600080fd5b6000819050919050565b6103ce816103bb565b81146103d957600080fd5b50565b6000813590506103eb816103c5565b92915050565b600080fd5b600080fd5b6000601f19601f8301169050919050565b7f4e487b7100000000000000000000000000000000000000000000000000000000600052604160045260246000fd5b610444826103fb565b810181811067ffffffffffffffff821117156104635761046261040c565b5b80604052505050565b60006104766103a7565b9050610482828261043b565b919050565b600067ffffffffffffffff8211156104a2576104a161040c565b5b6104ab826103fb565b9050602081019050919050565b82818337600083830152505050565b60006104da6104d584610487565b61046c565b9050828152602081018484840111156104f6576104f56103f6565b5b6105018482856104b8565b509392505050565b600082601f83011261051e5761051d6103f1565b5b813561052e8482602086016104c7565b91505092915050565b6000806000606084860312156105505761054f6103b1565b5b600061055e868287016103dc565b935050602084013567ffffffffffffffff81111561057f5761057e6103b6565b5b61058b86828701610509565b925050604061059c868287016103dc565b9150509250925092565b600080604083850312156105bd576105bc6103b1565b5b60006105cb858286016103dc565b92505060206105dc858286016103dc565b9150509250929050565b60008115159050919050565b6105fb816105e6565b82525050565b600060208201905061061660008301846105f2565b92915050565b60008060408385031215610633576106326103b1565b5b6000610641858286016103dc565b925050602083013567ffffffffffffffff811115610662576106616103b6565b5b61066e85828601610509565b9150509250929050565b600080600060608486031215610691576106906103b1565b5b600061069f868287016103dc565b93505060206106b0868287016103dc565b925050604084013567ffffffffffffffff8111156106d1576106d06103b6565b5b6106dd86828701610509565b9150509250925092565b600081519050919050565b7f4e487b7100000000000000000000000000000000000000000000000000000000600052602260045260246000fd5b6000600282049050600182168061073957607f821691505b60208210810361074c5761074b6106f2565b5b50919050565b60008190508160005260206000209050919050565b60006020601f8301049050919050565b600082821b905092915050565b6000600883026107b47fffffffffffffffffffffffffffffffffffffffffffffffffffffffffffffffff82610777565b6107be8683610777565b95508019841693508086168417925050509392505050565b6000819050919050565b60006107fb6107f66107f1846103bb565b6107d6565b6103bb565b9050919050565b6000819050919050565b610815836107e0565b61082961082182610802565b848454610784565b825550505050565b600090565b61083e610831565b61084981848461080c565b505050565b5b8181101561086d57610862600082610836565b60018101905061084f565b5050565b601f8211156108b25761088381610752565b61088c84610767565b8101602085101561089b578190505b6108af6108a785610767565b83018261084e565b50505b505050565b600082821c905092915050565b60006108d5600019846008026108b7565b1980831691505092915050565b60006108ee83836108c4565b9150826002028217905092915050565b610907826106e7565b67ffffffffffffffff8111156109205761091f61040c565b5b61092a8254610721565b610935828285610871565b600060209050601f8311600181146109685760008415610956578287015190505b61096085826108e2565b8655506109c8565b601f19841661097686610752565b60005b8281101561099e57848901518255600182019150602085019450602081019050610979565b868310156109bb57848901516109b7601f8916826108c4565b8355505b6001600288020188555050505b505050505050565b600081905092915050565b60005b838110156109f95780820151818401526020810190506109de565b60008484015250505050565b6000610a10826106e7565b610a1a81856109d0565b9350610a2a8185602086016109db565b80840191505092915050565b6000610a428284610a05565b915081905092915050565b7f4e487b7100000000000000000000000000000000000000000000000000000000600052601160045260246000fd5b6000610a87826103bb565b9150610a92836103bb565b9250828203905081811115610aaa57610aa9610a4d565b5b92915050565b7f4e487b7100000000000000000000000000000000000000000000000000000000600052601260045260246000fd5b6000610aea826103bb565b9150610af5836103bb565b925082610b0557610b04610ab0565b5b82820490509291505056fea2646970667358221220628add4cb88d9966292663a18f3988182193a131c207290959512cd990ebb59964736f6c63430008130033",
  "immutableReferences": {},
  "source": "pragma solidity ^0.8.0;\n\ncontract UserValidation {\n    struct User {\n        string ethereumId;\n        uint age;\n    }\n\n    mapping(uint => User) private users;\n\n    function setUser(uint userId, string memory ethereumId, uint age) public {\n        users[userId] = User(ethereumId, age);\n    }\n\n    function calculateAge(uint dob) private view returns (uint) {\n        uint currentDate = block.timestamp; // Current timestamp\n        uint age = (currentDate - dob) / 31536000; // Assuming 31536000 seconds in a year\n        return age;\n    }\n\n    // Validate age function\n    function validateAge(uint userId, uint dob) public view returns(bool) {\n        uint age = calculateAge(dob);\n        return age >= 21; // Return true if age is 21 or above\n    }\n\n   function validateLoginAgeGated(uint userId, uint dob, string memory ethereumId) public view returns(bool) {\n        string memory storedEthereumId = users[userId].ethereumId;\n        if (keccak256(abi.encodePacked(storedEthereumId)) == keccak256(abi.encodePacked(ethereumId))) {\n            return validateAge(userId, dob);\n        }\n        return false;\n    }\n\n    function validateLoginNonAgeGated(uint userId, string memory ethereumId) public view returns(bool) {\n        string memory storedEthereumId = users[userId].ethereumId;\n        return keccak256(abi.encodePacked(storedEthereumId)) == keccak256(abi.encodePacked(ethereumId));\n    }\n}",
  "sourcePath": "/Users/yashithavilasagarapu/Desktop/ZKP/contracts/UserValidation.sol",
  "compiler": {
    "name": "solc",
    "version": "0.8.19+commit.7dd6d404.Emscripten.clang"
  },
  "schemaVersion": "3.4.16",
  "updatedAt": "2024-04-04T04:02:08.257Z",
  "networkType": "ethereum",
  "devdoc": {
    "kind": "dev",
    "methods": {},
    "version": 1
  },
  "userdoc": {
    "kind": "user",
    "methods": {},
    "version": 1
  }
}